:020000040000FA
:0400000007EF00F016
:100008005F822DED07F05DEF07F00E0E2B18D8A4D8
:1000180010EF00F012EF00F031EF00F00F0E195C56
:10002800270E1A58D8B01BEF00F01DEF00F0EEEFC6
:1000380000F0174A182A0B0E17181810D8A427EF23
:1000480000F029EF00F0EEEF00F0194A1A2A000E2E
:10005800186E000E176EEEEF00F00D0E2B18D8A4D8
:1000680038EF00F03AEF00F054EF00F019501A1092
:10007800D8B441EF00F043EF00F0EEEF00F0174A7C
:10008800182A0B0E17181810D8A44DEF00F04FEFD0
:1000980000F0EEEF00F01906D8A01A062BEF00F0DA
:1000A8000B0E2B18D8A45BEF00F05DEF00F0EEEF1D
:1000B80000F0000E286E000E276E000E4B6E010E2B
:1000C8004A6E000E2A6E000E296E000E266E000E75
:1000D800256E000E436E010E426E000E476E010E35
:1000E800466E000E456E010E446E19C04DF01AC0E2
:1000F8004EF0030E506EE80E4F6E57EC06F04D5062
:10010800300F596E000E54EC08F0000E506E640E5D
:100118004F6E19C04DF01AC04EF057EC06F04DC0A6
:1001280054F04EC055F0000E576E0A0E566EFBEC9A
:1001380006F05450300F596E010E54EC08F0000EC2
:10014800506E0A0E4F6E19C04DF01AC04EF057ECA3
:1001580006F04DC054F04EC055F0000E576E0A0E12
:10016800566EFBEC06F05450300F596E020E54ECEC
:1001780008F019C054F01AC055F0000E576E0A0E58
:10018800566EFBEC06F05450300F596E030E54ECCB
:1001980008F0880E5B6E130E5C6E000E5D6E000E2E
:1001A8005E6E5B06000E5C5A5D5A5E5A5B280AE179
:1001B8005C2808E15D2806E15E28D8A4E6EF00F097
:1001C800E8EF00F0D5EF00F0000E1A6E000E196E81
:1001D80091EC06F019C04DF01AC04EF0030E506EA7
:1001E800E80E4F6E57EC06F0340E4D24D96E000E13
:1001F8004E20DA6EDF502C6E000E506E640E4F6E7D
:1002080019C04DF01AC04EF057EC06F04DC054F02E
:100218004EC055F0000E576E0A0E566EFBEC06F0F7
:10022800340E5424D96E000E5520DA6EDF502D6E30
:10023800000E506E0A0E4F6E19C04DF01AC04EF0E7
:1002480057EC06F04DC054F04EC055F0000E576EF6
:100258000A0E566EFBEC06F0340E5424D96E000ECE
:100268005520DA6EDF502E6E19C054F01AC055F0C2
:10027800000E576E0A0E566EFBEC06F0340E542430
:10028800D96E000E5520DA6EDF502F6E2C0E4D6E93
:10029800000E4E6EC6EC06F0120040504110D8B465
:1002A80058EF01F05AEF01F060EF01F0000E416ED7
:1002B800000E406EB2EC07F025502610D8A467EF68
:1002C80001F069EF01F06DEF01F06AEC04F096EFD0
:1002D80001F025042610D8A474EF01F076EF01F0A0
:1002E8007AEF01F0A8EC04F096EF01F0020E251861
:1002F8002610D8A482EF01F084EF01F088EF01F016
:10030800E6EC04F096EF01F0030E25182610D8A4A9
:1003180090EF01F092EF01F096EF01F02CEC04F071
:1003280096EF01F00D0E2B18D8A49DEF01F09FEF6A
:1003380001F0B4EF01F0265007E1030E255CD8B0B8
:10034800A8EF01F0AAEF01F0AEEF01F0254A262A46
:100358000BEF02F0000E266E000E256E0BEF02F07A
:100368000B0E2B18D8A4BBEF01F0BDEF01F00BEF7B
:1003780002F0000E286E000E276E000E4B6E010E66
:100388004A6E000E2A6E000E296E000E266E000EB2
:10039800256E000E436E010E426E000E416E010E78
:1003A800406E000E476E010E466E000E456E010E41
:1003B800446E1B50300F596E000E54EC08F01D505F
:1003C800300F596E010E54EC08F01F50300F596E63
:1003D800020E54EC08F02150300F596E030E54EC05
:1003E80008F0000E1C6E000E1B6E000E1E6E000E36
:1003F8001D6E000E206E000E1F6E000E226E000E87
:10040800216E000E1A6E000E196E91EC06F02C0E7D
:100418004D6E000E4E6EC6EC06F012003E503F10B8
:10042800D8B419EF02F01BEF02F021EF02F0000E32
:100438003F6E000E3E6EDBEC07F023502410D8A46C
:1004480028EF02F02AEF02F02EEF02F062EC05F03E
:1004580057EF02F023042410D8A435EF02F037EF49
:1004680002F03BEF02F0A0EC05F057EF02F0020EAD
:1004780023182410D8A443EF02F045EF02F049EF07
:1004880002F0DEEC05F057EF02F0030E23182410FB
:10049800D8A451EF02F053EF02F057EF02F024EC2A
:1004A80005F057EF02F00D0E2B18D8A45EEF02F0FE
:1004B80060EF02F075EF02F0245007E1030E235CB1
:1004C800D8B069EF02F06BEF02F06FEF02F0234A49
:1004D800242AC6EF02F0000E246E000E236EC6EF2B
:1004E80002F00B0E2B18D8A47CEF02F07EEF02F07E
:1004F800C6EF02F0000E286E000E276E000E496E41
:10050800010E486E000E2A6E000E296E000E246E33
:10051800000E236E000E436E010E426E000E3F6EFB
:10052800010E3E6E000E476E010E466E000E456EC1
:10053800010E446E1B50300F596E040E54EC08F037
:100548001D50300F596E050E54EC08F01F50300F37
:10055800596E060E54EC08F02150300F596E070EF4
:1005680054EC08F0000E1C6E000E1B6E000E1E6E82
:10057800000E1D6E000E206E000E1F6E000E226E05
:10058800000E216E2C0E4D6E000E4E6EC6EC06F05F
:10059800120027502810D8A4D4EF02F0D6EF02F0AA
:1005A80025EF03F04A504B10D8B4DDEF02F0DFEF2F
:1005B80002F021EF03F0E50E306E400E316E6E0E44
:1005C800326ECC0E336E0B0E2B18D8A4EEEF02F061
:1005D800F0EF02F0FFEF02F027502810D8B4F7EF41
:1005E80002F0FAEF02F0010EFBEF02F0000E276EA8
:1005F800286A10EF03F00D0E2B18D8A406EF03F0AD
:1006080008EF03F010EF03F0000E4B6E000E4A6E79
:10061800000E436E000E426E42504310D8B417EFDE
:1006280003F019EF03F06CEF03F0300E4D6E000E7F
:100638004E6EC6EC06F06CEF03F07FEC08F06CEF42
:1006480003F048504910D8B42CEF03F02EEF03F014
:100658006AEF03F08F0E306E400E316E840E326EEC
:10066800E90E336E0B0E2B18D8A43DEF03F03FEFC5
:1006780003F04EEF03F027502810D8B446EF03F0EC
:1006880049EF03F0010E4AEF03F0000E276E286AC7
:100698005FEF03F00D0E2B18D8A455EF03F057EFBA
:1006A80003F05FEF03F0000E496E000E486E000E77
:1006B800436E000E426E42504310D8B466EF03F00A
:1006C80068EF03F06CEF03F019EF03F012EC02F09F
:1006D8001200000E516E000E506E000E536E040E86
:1006E800526E5250B1EC08F04F6E0E0E5024D96E77
:1006F800000E5120DA6E4F50DE18D8A486EF03F0B2
:1007080088EF03F08AEF03F0504A512A524A532ADD
:1007180053BE98EF03F0535009E1080E525CD8A07D
:1007280098EF03F09AEF03F075EF03F0040E5018FA
:100738005110D8A4A2EF03F0A4EF03F0BAEF03F02E
:10074800000E476E000E466E000E456E000E446E9B
:10075800000E2A6E010E296E000E286E000E276EFE
:10076800000E4B6E000E4A6ECEEF03F0000E476E81
:10077800010E466E000E2A6E000E296E000E286EBF
:10078800000E276E000E4B6E010E4A6E000E456E6F
:10079800010E446E120004EC08F00009D8B4D7EF3B
:1007A80003F0D9EF03F02BEF04F0000E1A6E000EE1
:1007B800196ED00E0624196E1A6AFF0E1A2219C075
:1007C8004DF01AC04EF0000E506E0A0E4F6E6CECD3
:1007D80008F007504D26000E4E22D00E4D24196EFB
:1007E800FF0E4E201A6E19C04DF01AC04EF0000EC2
:1007F800506E0A0E4F6E6CEC08F008504D26000E35
:100808004E22D00E4D24196EFF0E4E201A6E19C0BE
:100818004DF01AC04EF0000E506E0A0E4F6E6CEC82
:1008280008F009504D26000E4E22D00E4D24196EA8
:10083800FF0E4E201A6E0AC00EF00BC00FF00CC04F
:1008480010F00DC011F0000E126E6DEC03F01200E6
:10085800340E1B24D96E000E1C20DA6EDF501009EE
:100868002C6E340E1D24D96E000E1E20DA6EDF5059
:100878002D6E340E1F24D96E000E2020DA6EDF5044
:100888002E6E340E2124D96E000E2220DA6EDF502F
:100898002F6E0E0E2B18D8A454EF04F056EF04F068
:1008A80069EF04F01C5007E1090E1B5CD8B05FEF3C
:1008B80004F061EF04F065EF04F01B4A1C2A69EFAD
:1008C80004F0000E1C6E000E1B6E1200340E1B246A
:1008D800D96E000E1C20DA6EDF502C6E340E1D24EB
:1008E800D96E000E1E20DA6EDF502D6E340E1F24D6
:1008F800D96E000E2020DA6EDF502E6E340E2124C1
:10090800D96E000E2220DA6EDF5010092F6E0E0EFF
:100918002B18D8A492EF04F094EF04F0A7EF04F09A
:10092800225007E1090E215CD8B09DEF04F09FEF3B
:1009380004F0A3EF04F0214A222AA7EF04F0000EE6
:10094800226E000E216E1200340E1B24D96E000E8A
:100958001C20DA6EDF502C6E340E1D24D96E000E6A
:100968001E20DA6EDF502D6E340E1F24D96E000E55
:100978002020DA6EDF5010092E6E340E2124D96E35
:10098800000E2220DA6EDF502F6E0E0E2B18D8A420
:10099800D0EF04F0D2EF04F0E5EF04F0205007E1C7
:1009A800090E1F5CD8B0DBEF04F0DDEF04F0E1EFD7
:1009B80004F01F4A202AE5EF04F0000E206E000E16
:1009C8001F6E1200340E1B24D96E000E1C20DA6E26
:1009D800DF502C6E340E1D24D96E000E1E20DA6EE8
:1009E800DF5010092D6E340E1F24D96E000E202002
:1009F800DA6EDF502E6E340E2124D96E000E2220BE
:100A0800DA6EDF502F6E0E0E2B18D8A40EEF05F0FD
:100A180010EF05F023EF05F01E5007E1090E1D5CED
:100A2800D8B019EF05F01BEF05F01FEF05F01D4AD0
:100A38001E2A23EF05F0000E1E6E000E1D6E12001A
:100A4800340E1B24D96E000E1C20DA6EDF501009FC
:100A58002C6E340E1D24D96E000E1E20DA6EDF5067
:100A68002D6E340E1F24D96E000E2020DA6EDF5052
:100A78002E6E340E2124D96E000E2220DA6EDF503D
:100A88002F6E0E0E2B18D8A44CEF05F04EEF05F084
:100A980061EF05F01C5007E1090E1B5CD8B057EF59
:100AA80005F059EF05F05DEF05F01B4A1C2A61EFD0
:100AB80005F0000E1C6E000E1B6E1200340E1B2477
:100AC800D96E000E1C20DA6EDF502C6E340E1D24F9
:100AD800D96E000E1E20DA6EDF502D6E340E1F24E4
:100AE800D96E000E2020DA6EDF502E6E340E2124CF
:100AF800D96E000E2220DA6EDF5010092F6E0E0E0E
:100B08002B18D8A48AEF05F08CEF05F09FEF05F0BD
:100B1800225007E1090E215CD8B095EF05F097EF58
:100B280005F09BEF05F0214A222A9FEF05F0000E01
:100B3800226E000E216E1200340E1B24D96E000E98
:100B48001C20DA6EDF502C6E340E1D24D96E000E78
:100B58001E20DA6EDF502D6E340E1F24D96E000E63
:100B68002020DA6EDF5010092E6E340E2124D96E43
:100B7800000E2220DA6EDF502F6E0E0E2B18D8A42E
:100B8800C8EF05F0CAEF05F0DDEF05F0205007E1EA
:100B9800090E1F5CD8B0D3EF05F0D5EF05F0D9EFFB
:100BA80005F01F4A202ADDEF05F0000E206E000E2A
:100BB8001F6E1200340E1B24D96E000E1C20DA6E34
:100BC800DF502C6E340E1D24D96E000E1E20DA6EF6
:100BD800DF5010092D6E340E1F24D96E000E202010
:100BE800DA6EDF502E6E340E2124D96E000E2220CC
:100BF800DA6EDF502F6E0E0E2B18D8A406EF06F013
:100C080008EF06F01BEF06F01E5007E1090E1D5C09
:100C1800D8B011EF06F013EF06F017EF06F01D4AF3
:100C28001E2A1BEF06F0000E1E6E000E1D6E12002F
:100C38004D6E4D04D8A423EF06F025EF06F04BEFD8
:100C480006F082500F0B0F0AD8B42DEF06F02FEFE5
:100C580006F03DEF06F04C50D8B435EF06F037EF0C
:100C680006F03DEF06F0000E4C6E82500F0B56EF6B
:100C780006F082500F0B0F0AD8A445EF06F047EF95
:100C880006F055EF06F0010E4C6E55EF06F04D508C
:100C9800D8A451EF06F053EF06F055EF06F039EF00
:100CA80006F0FF0E1200000E526E000E516E4F50ED
:100CB8005010D8B462EF06F064EF06F08CEF06F03F
:100CC800010E536E6CEF06F0D8904F365036532A0B
:100CD80050AE71EF06F073EF06F068EF06F0D890AB
:100CE800513652364F504D5C50504E58D8A07FEF79
:100CF80006F081EF06F086EF06F04F504D5E50503B
:100D08004E5A5180D89050324F32532E73EF06F01E
:100D180051C04DF052C04EF01200000E0F01436F4B
:100D2800000E446F6B0E416FC00E426F080E456F88
:100D3800000EB1EC08F00F01466F010EB1EC08F09F
:100D48000F01476F020EB1EC08F00F01486F030E58
:100D5800B1EC08F00F01496F040EB1EC08F00F0177
:100D68004A6F050EB1EC08F00F014B6F060EB1EC9F
:100D780008F00F014C6F070EB1EC08F00F014D6F32
:100D880040871200000E536E53504D24D96E000E4A
:100D98004E20DA6EDF50836E53C04FF0010E506E56
:100DA8004F2AD9EF06F0D89050364F2ED7EF06F0DD
:100DB8008050F00B5010806E030E526EE80E516E8C
:100DC8005106D8A05206512806E15228D8A4EFEFC0
:100DD80006F0F1EF06F0E4EF06F0532A030E536431
:100DE800F8EF06F0FAEF06F0C8EF06F012005650DA
:100DF8005710D8B402EF07F004EF07F028EF07F018
:100E0800010E586E0CEF07F0D89056365736582A10
:100E180057AE11EF07F013EF07F008EF07F0565041
:100E2800545C57505558D8A01CEF07F01EEF07F038
:100E380022EF07F05650545E5750555AD890573203
:100E48005632582E13EF07F054C054F055C055F0E1
:100E580012000600F2A233EF07F035EF07F05BEF60
:100E680007F046504710D8B43CEF07F03EEF07F0C4
:100E78004DEF07F029502A10D8B445EF07F048EF96
:100E880007F0010E49EF07F0000E296E2A6A5AEFA3
:100E980007F044504510D8B454EF07F057EF07F067
:100EA800010E58EF07F0000E446E456AF2925F9209
:100EB80011004E0EF66E110EF76E000EF86E00EE73
:100EC80060F010EE14F00900F5CFEEFFE550E150A8
:100ED800FAE11E0EF66E110EF76E000EF86E00EEB9
:100EE80034F010EE19F00900F5CFEEFFE550E150AF
:100EF800FAE100EE01F0330EEE6AE806FDE15F90DC
:100F08005F92000188EF07F09CEC08F0CFEC03F04B
:100F180029502A10D8B493EF07F095EF07F0ACEFFB
:100F280007F044504510D8B49CEF07F09EEF07F047
:100F3800A4EF07F0010E1CEC06F02B6EA8EF07F0EB
:100F4800000E1CEC06F02B6ECDEC02F08AEF07F0D9
:100F5800000E836E8AEF07F007EF00F0000EB1EC89
:100F680008F04E6ED00E4E241B6E1C6AFF0E1C221B
:100F7800010EB1EC08F04E6ED00E4E241D6E1E6AA6
:100F8800FF0E1E22020EB1EC08F04E6ED00E4E245B
:100F98001F6E206AFF0E2022030EB1EC08F04E6E81
:100FA800D00E4E24216E226AFF0E22221200040E59
:100FB800B1EC08F04E6ED00E4E241B6E1C6AFF0E6C
:100FC8001C22050EB1EC08F04E6ED00E4E241D6E9C
:100FD8001E6AFF0E1E22060EB1EC08F04E6ED00EF1
:100FE8004E241F6E206AFF0E2022070EB1EC08F077
:100FF8004E6ED00E4E24216E226AFF0E222212005F
:1010080060AE09EF08F00BEF08F02AEF08F063CFA5
:1010180001F064CF02F061CF03F062CF04F065CF36
:1010280005F066CF06F067CF07F068CF08F069CF04
:1010380009F06ACF0AF06BCF0BF06CCF0CF06DCFD4
:101048000DF0609EA490010E2BEF08F0000E120028
:10105800939493861F0E6F166F8E800E6E18D8A409
:1010680038EF08F03AEF08F031EF08F0000E776E2D
:10107800E10E706E1B0E716E030E726E010E0D0185
:10108800D46F000E0F01026F000E036F6B0E006F1E
:10109800C00E016F1F0E6F166F50000E606E1200AB
:1010A8005A6E5AC0A9FF59C0A8FFA69EA69CA6843E
:1010B800F29E550EA76EAA0EA76EA682F28EA1A862
:1010C80068EF08F06AEF08F063EF08F0A1981200E3
:1010D8004D504F02F3CF51F0F4CF52F04D50500223
:1010E800F35052264E504F02F350522651C04DF045
:1010F80052C04EF0120044504510D8B486EF08F0A4
:1011080088EF08F08CEF08F051EC01F08EEF08F052
:1011180009EC00F01200E721CB6B2D6EEE23EF6F88
:0F112800010001000100010001000100010001B0
:10113800F28EF28CC3EC08F0C7EC08F0BAEC08F0B9
:101148002CEC08F01200E721CB6B2D6EEE23EF6F2D
:10115800E721CB6B2D6EEE23EF6F4D6E4DC0A9FFCF
:10116800A694A69EA69CA680A8501200000E956E76
:101178009250F00B926E8050F00B806E1200F18C42
:0E118800F292F288120094500F09946E120039
:020000040020DA
:08000000FFFFFFFFFFFFFFFF00
:020000040030CA
:0E000000FF071F1FFF8285FF0FC00FE00F409C
:00000001FF
