:020000040000FA
:0400000007EF00F016
:0A00080047824CED06F033EF06F0DE
:10060000000A0D0A0D5245434945564544204441D0
:100610005441202D3E2020200A0D50524F44554376
:10062000542049443A20000A0D5550444154454451
:100630002053544F434B3A20000A0D454E54455227
:1006400020544845205553543A2000454E544552B5
:0F06500020544845205049443A20000A0D00002C
:1006600075EC06F02FEC05F045044610D8A43BEFDE
:1006700003F03DEF03F049EF03F0390E326E060E42
:10068000336E6CEC05F0000E466E020E456E5AEFAE
:1006900003F045504610D8A450EF03F052EF03F09A
:1006A0005AEF03F04B0E326E060E336E6CEC05F013
:1006B00043EF03F02650D8B460EF03F062EF03F08D
:1006C00032EF03F0265061EC06F00D0E2618D8B478
:1006D0006CEF03F06EEF03F0D5EF03F02150221022
:1006E000D8A475EF03F077EF03F0A4EF03F02F0E1B
:1006F00026647DEF03F07FEF03F09EEF03F03A0EE8
:10070000266085EF03F087EF03F09EEF03F024509F
:1007100007E1040E235CD8B090EF03F092EF03F0F2
:100720009EEF03F00E0E2324D96E000E2420DA6E05
:1007300026C0DFFF234A242A0DEF05F0000E206EAD
:10074000010E1F6E0DEF05F021042210D8A4ABEFAF
:1007500003F0ADEF03F00DEF05F02F0E2664B3EFBD
:1007600003F0B5EF03F09EEF03F03A0E2660BBEF07
:1007700003F0BDEF03F09EEF03F0245009E1040EF7
:10078000235CD8A0C6EF03F0C8EF03F09EEF03F0A0
:10079000245007E1080E235CD8B0D1EF03F0D3EF6B
:1007A00003F09EEF03F092EF03F0214A222A5B0E42
:1007B000326E060E336E6CEC05F021042210D8A4C4
:1007C000E4EF03F0E6EF03F0ECEF03F0000E466E0B
:1007D000000E456EFAEF03F0020E21182210D8A485
:1007E000F4EF03F0F6EF03F0FAEF03F0000E466EBD
:1007F000010E456E45504610D8A401EF04F003EFFA
:1008000004F074EF04F0245007E1040E235CD8B028
:100810000CEF04F00EEF04F074EF04F023C039F095
:1008200024C03AF023C03BF024C03CF03CBE22EF91
:1008300004F03C5009E1040E3B5CD8A022EF04F028
:1008400024EF04F026EF04F02CEF04F0234A242ACE
:100850003B4A3C2A16EF04F0FF0E2324416EFF0EA4
:100860002420426E42BE39EF04F037EF04F03BEF34
:1008700004F06EEF04F03906D8A03A06392808E1F2
:100880003A28D8B446EF04F048EF04F058EF04F0EB
:100890000E0E3924D96E000E3A20DA6E0E0E412467
:1008A000E16E000E4220E26EDFCFE7FF64EF04F05E
:1008B0000E0E4124D96E000E4220DA6E300EDF6E2D
:1008C000000E3A6E000E396E4106D8A0420642BEB6
:1008D0006EEF04F06CEF04F03BEF04F0000E246EBA
:1008E000040E236E00EF05F045504610D8B47BEFA0
:1008F00004F07DEF04F000EF05F0245007E1080E4E
:10090000235CD8B086EF04F088EF04F000EF05F028
:1009100023C03DF024C03EF023C03FF024C040F08F
:1009200040BE9CEF04F0405009E1080E3F5CD8A0A7
:100930009CEF04F09EEF04F0A0EF04F0A6EF04F0AB
:10094000234A242A3F4A402A90EF04F05B0E326E7D
:10095000060E336E6CEC05F02350300F61EC06F0A0
:100960005B0E326E060E336E6CEC05F0FF0E232428
:10097000436EFF0E2420446E44BECAEF04F0445080
:1009800007E1040E435CD8B0C8EF04F0CAEF04F0EE
:10099000CCEF04F000EF05F03D50376E3E50386E5E
:1009A000010E3D5E000E3E5A385009E1050E375CDF
:1009B000D8A0DDEF04F0DFEF04F0EFEF04F00E0E4F
:1009C0003D24D96E000E3E20DA6E0E0E4324E16EF9
:1009D000000E4420E26EDFCFE7FFFBEF04F00E0EC7
:1009E0004324D96E000E4420DA6E300EDF6E000E06
:1009F0003E6E040E3D6E4306D8A04406BCEF04F0E4
:100A00001F502010D8B407EF05F009EF05F00DEFE7
:100A100005F0000E206E000E1F6E020E211822102F
:100A2000D8A415EF05F017EF05F029EF05F0000E3B
:100A3000226E000E216E000E166E5B0E326E060EDA
:100A4000336E6CEC05F010EC06F0000E246E000E18
:100A5000236E000E266E32EF03F007EF00F09BECE2
:100A600005F00009D8B437EF05F039EF05F06BEF6A
:100A700005F006C027F007C028F008C029F009C01B
:100A80002AF0000E2B6E0AC02CF00BC02DF00CC00B
:100A90002EF00DC02FF0000E306E010E326E060EDD
:100AA000336E6CEC05F02C0E326E000E336E6CEC77
:100AB00005F0270E326E060E336E6CEC05F0270E35
:100AC000326E000E336E6CEC05F05B0E326E060E6D
:100AD000336E6CEC05F0120082EF05F032C0F6FFC9
:100AE00033C0F7FFF86A050EF76403D00800F5502D
:100AF00005D0F6CFE1FFF7CFE2FFE75061EC06F05B
:100B0000324A332A32C0F6FF33C0F7FFF86A050EC7
:100B1000F76403D00800F55005D0F6CFE1FFF7CF1A
:100B2000E2FFE7500009D8A498EF05F09AEF05F02E
:100B30006EEF05F0120060AEA0EF05F0A2EF05F039
:100B4000C1EF05F063CF01F064CF02F061CF03F095
:100B500062CF04F065CF05F066CF06F067CF07F0EF
:100B600068CF08F069CF09F06ACF0AF06BCF0BF0BD
:100B70006CCF0CF06DCF0DF0609EA490010EC2EF13
:100B800005F0000E1200939493861F0E6F166F8E61
:100B9000800E6E18D8A4CFEF05F0D1EF05F0C8EFA6
:100BA00005F0000E776EE10E706E1B0E716E030E77
:100BB000726E010E0D01D46F000E0F01026F000E58
:100BC000036F6B0E006FC00E016F1F0E6F166F501C
:100BD000000E606E1200000E366E000E356E04EFD1
:100BE00006F0010E346EF40E336E3306D8A03406D0
:100BF000332806E13428D8A400EF06F002EF06F00F
:100C0000F5EF05F0354A362A3150355C325036580A
:100C1000D8A00DEF06F00FEF06F0F1EF05F012008F
:100C2000000E0F01436F000E446F6B0E416FC00E3C
:100C3000426F080E456F0EC046FF0FC047FF10C041
:100C400048FF11C049FF12C04AFF13C04BFF14C038
:100C50004CFF15C04DFF4087030E326EE80E316E1B
:100C6000EBEC05F01200F80EF66E0C0EF76E000EAF
:100C7000F86E0900F5CF45F00900F5CF46F000EE1B
:100C800001F0300EEE6AE806FDE147904792000E53
:100C9000F86E000130EF03F006009EAA52EF06F056
:100CA00054EF06F05FEF06F0ABA259EF06F05BEFF2
:100CB00006F05CEF06F0AB92AECF26F09E9A47921C
:100CC0001100316E9EA867EF06F069EF06F062EF43
:100CD00006F031C0ADFF1200948E949CAC84AB8EB4
:100CE000AB88810EAF6E9D8A1200C3EC05F06CECF0
:0A0CF00006F0F28EF28C12000100F3
:020000040020DA
:08000000FFFFFFFFFFFFFFFF00
:020000040030CA
:0E000000FF071F1FFF8285FF0FC00FE00F409C
:00000001FF
